{
  "contractName": "Canteen",
  "abi": [
    {
      "inputs": [],
      "stateMutability": "nonpayable",
      "type": "constructor"
    },
    {
      "anonymous": false,
      "inputs": [
        {
          "indexed": false,
          "internalType": "string",
          "name": "host",
          "type": "string"
        },
        {
          "indexed": false,
          "internalType": "string",
          "name": "image",
          "type": "string"
        }
      ],
      "name": "MemberImageUpdate",
      "type": "event"
    },
    {
      "anonymous": false,
      "inputs": [
        {
          "indexed": false,
          "internalType": "string",
          "name": "host",
          "type": "string"
        }
      ],
      "name": "MemberJoin",
      "type": "event"
    },
    {
      "anonymous": false,
      "inputs": [
        {
          "indexed": false,
          "internalType": "string",
          "name": "host",
          "type": "string"
        }
      ],
      "name": "MemberLeave",
      "type": "event"
    },
    {
      "inputs": [
        {
          "internalType": "uint256",
          "name": "",
          "type": "uint256"
        }
      ],
      "name": "images",
      "outputs": [
        {
          "internalType": "string",
          "name": "",
          "type": "string"
        }
      ],
      "stateMutability": "view",
      "type": "function",
      "constant": true
    },
    {
      "inputs": [
        {
          "internalType": "uint256",
          "name": "",
          "type": "uint256"
        }
      ],
      "name": "members",
      "outputs": [
        {
          "internalType": "string",
          "name": "",
          "type": "string"
        }
      ],
      "stateMutability": "view",
      "type": "function",
      "constant": true
    },
    {
      "inputs": [],
      "name": "owner",
      "outputs": [
        {
          "internalType": "address",
          "name": "",
          "type": "address"
        }
      ],
      "stateMutability": "view",
      "type": "function",
      "constant": true
    },
    {
      "inputs": [
        {
          "internalType": "string",
          "name": "host",
          "type": "string"
        }
      ],
      "name": "addMember",
      "outputs": [],
      "stateMutability": "nonpayable",
      "type": "function"
    },
    {
      "inputs": [
        {
          "internalType": "string",
          "name": "host",
          "type": "string"
        }
      ],
      "name": "removeMember",
      "outputs": [],
      "stateMutability": "nonpayable",
      "type": "function"
    },
    {
      "inputs": [
        {
          "internalType": "string",
          "name": "name",
          "type": "string"
        },
        {
          "internalType": "uint256",
          "name": "replicas",
          "type": "uint256"
        }
      ],
      "name": "addImage",
      "outputs": [],
      "stateMutability": "nonpayable",
      "type": "function"
    },
    {
      "inputs": [
        {
          "internalType": "string",
          "name": "name",
          "type": "string"
        }
      ],
      "name": "removeImage",
      "outputs": [],
      "stateMutability": "nonpayable",
      "type": "function"
    },
    {
      "inputs": [
        {
          "internalType": "string",
          "name": "name",
          "type": "string"
        },
        {
          "internalType": "uint256",
          "name": "from",
          "type": "uint256"
        },
        {
          "internalType": "uint256",
          "name": "to",
          "type": "uint256"
        }
      ],
      "name": "addPortForImage",
      "outputs": [],
      "stateMutability": "nonpayable",
      "type": "function"
    },
    {
      "inputs": [
        {
          "internalType": "string",
          "name": "name",
          "type": "string"
        }
      ],
      "name": "getPortsForImage",
      "outputs": [
        {
          "internalType": "uint256[2][]",
          "name": "",
          "type": "uint256[2][]"
        }
      ],
      "stateMutability": "view",
      "type": "function",
      "constant": true
    },
    {
      "inputs": [
        {
          "internalType": "string",
          "name": "host",
          "type": "string"
        }
      ],
      "name": "getMemberDetails",
      "outputs": [
        {
          "internalType": "string",
          "name": "",
          "type": "string"
        },
        {
          "internalType": "bool",
          "name": "",
          "type": "bool"
        }
      ],
      "stateMutability": "view",
      "type": "function",
      "constant": true
    },
    {
      "inputs": [
        {
          "internalType": "string",
          "name": "name",
          "type": "string"
        }
      ],
      "name": "getImageDetails",
      "outputs": [
        {
          "internalType": "uint256",
          "name": "",
          "type": "uint256"
        },
        {
          "internalType": "uint256",
          "name": "",
          "type": "uint256"
        },
        {
          "internalType": "bool",
          "name": "",
          "type": "bool"
        }
      ],
      "stateMutability": "view",
      "type": "function",
      "constant": true
    },
    {
      "inputs": [],
      "name": "getMembersCount",
      "outputs": [
        {
          "internalType": "uint256",
          "name": "",
          "type": "uint256"
        }
      ],
      "stateMutability": "view",
      "type": "function",
      "constant": true
    },
    {
      "inputs": [],
      "name": "getImagesCount",
      "outputs": [
        {
          "internalType": "uint256",
          "name": "",
          "type": "uint256"
        }
      ],
      "stateMutability": "view",
      "type": "function",
      "constant": true
    }
  ],
  "bytecode": "0x6080604052620186a0600655348015610016575f80fd5b505f80546001600160a01b03191633179055611b2c806100355f395ff3fe608060405234801561000f575f80fd5b50600436106100cb575f3560e01c80638485648211610088578063918f968711610063578063918f9687146101c3578063b33db7b9146101d6578063f55365a1146101e9578063fe1d3fd2146101fc575f80fd5b8063848564821461017e5780638742993d146101915780638da5cb5b14610199575f80fd5b806309772f8f146100cf5780631b73aeff146100e65780633e71b33d146101165780635bac6cd3146101365780635daf08ca1461014b5780637be526091461016b575b5f80fd5b6002545b6040519081526020015b60405180910390f35b6100f96100f43660046115c3565b61021d565b6040805193845260208401929092521515908201526060016100dd565b6101296101243660046115c3565b610276565b6040516100dd91906115fd565b610149610144366004611665565b61035b565b005b61015e6101593660046116a7565b61053d565b6040516100dd919061170b565b6101496101793660046115c3565b6105e3565b61015e61018c3660046116a7565b61081a565b6004546100d3565b5f546101ab906001600160a01b031681565b6040516001600160a01b0390911681526020016100dd565b6101496101d13660046115c3565b610829565b6101496101e4366004611724565b6109a9565b6101496101f73660046115c3565b610a45565b61020f61020a3660046115c3565b610c66565b6040516100dd92919061176e565b5f805f8060035f866040516020016102359190611791565b60408051808303601f190181529181528151602092830120835290820192909252015f2080546001820154600290920154909791965060ff16945092505050565b5f546060906001600160a01b031633146102ab5760405162461bcd60e51b81526004016102a2906117ac565b60405180910390fd5b60055f836040516020016102bf9190611791565b6040516020818303038152906040528051906020012081526020019081526020015f20805480602002602001604051908101604052809291908181526020015f905b82821015610350575f8481526020902060408051808201918290529160028581029091019182845b81548152602001906001019080831161032957505050505081526020019060010190610301565b505050509050919050565b5f546001600160a01b031633146103845760405162461bcd60e51b81526004016102a2906117ac565b5f826040516020016103969190611791565b60408051601f1981840301815291815281516020928301205f818152600390935291206002015490915060ff16156104075760405162461bcd60e51b8152602060048201526014602482015273496d61676520616c72656164792061637469766560601b60448201526064016102a2565b5f8351116104575760405162461bcd60e51b815260206004820152601a60248201527f496d616765206e616d652063616e6e6f7420626520656d70747900000000000060448201526064016102a2565b5f82116104a65760405162461bcd60e51b815260206004820152601f60248201527f5265706c69636173206d7573742062652067726561746572207468616e20300060448201526064016102a2565b600480546001810182555f919091527f8a35acfbc15ff81a39ae7d344fd709f28e8600b4aa8c65c6b64bfe7fe36bd19b016104e18482611868565b50604080516060810182528381525f602080830182815260018486018181528785526003909352949092209251835590519282019290925590516002909101805460ff191691151591909117905561053883610d4b565b505050565b6002818154811061054c575f80fd5b905f5260205f20015f915090508054610564906117e3565b80601f0160208091040260200160405190810160405280929190818152602001828054610590906117e3565b80156105db5780601f106105b2576101008083540402835291602001916105db565b820191905f5260205f20905b8154815290600101906020018083116105be57829003601f168201915b505050505081565b5f546001600160a01b0316331461060c5760405162461bcd60e51b81526004016102a2906117ac565b5f8160405160200161061e9190611791565b60408051601f1981840301815291815281516020928301205f818152600390935291206002015490915060ff1661068a5760405162461bcd60e51b815260206004820152601060248201526f496d616765206e6f742061637469766560801b60448201526064016102a2565b5f818152600360205260408120600201805460ff191690555b600254811015610538575f60015f600284815481106106c4576106c4611924565b905f5260205f20016040516020016106dc9190611938565b60408051601f198184030181529181528151602092830120835290820192909252015f20600181015490915060ff16801561073d57506040518390610725908390602001611938565b60405160208183030381529060405280519060200120145b156108075760408051602081019091525f8152819061075c9082611868565b506108076002838154811061077357610773611924565b905f5260205f20018054610786906117e3565b80601f01602080910402602001604051908101604052809291908181526020018280546107b2906117e3565b80156107fd5780601f106107d4576101008083540402835291602001916107fd565b820191905f5260205f20905b8154815290600101906020018083116107e057829003601f168201915b5050505050611127565b5080610812816119be565b9150506106a3565b6004818154811061054c575f80fd5b5f546001600160a01b031633146108525760405162461bcd60e51b81526004016102a2906117ac565b5f816040516020016108649190611791565b60408051601f1981840301815291815281516020928301205f818152600193849052919091209091015490915060ff16156108d95760405162461bcd60e51b81526020600482015260156024820152744d656d62657220616c72656164792061637469766560581b60448201526064016102a2565b600280546001810182555f919091527f405787fa12a823e0f2b7631cc41b3ba8828b3321ca811111fa75cd3aa3bb5ace016109148382611868565b50604080516060810182525f8183018181528252600160208084018290528583525291909120815181906109489082611868565b50602091909101516001909101805460ff19169115159190911790556040517f20aaf1122319f8680c5702fbd0dc409b4ba18bd4c06d2ba76851f48684317a5a9061099490849061170b565b60405180910390a16109a582611127565b5050565b5f546001600160a01b031633146109d25760405162461bcd60e51b81526004016102a2906117ac565b60055f846040516020016109e69190611791565b60408051601f1981840301815291815281516020928301208352828201939093529082015f90812083518085019094528584528383018590528054600181018255908252919020610a3f926002928302909101916114d4565b50505050565b5f546001600160a01b03163314610a6e5760405162461bcd60e51b81526004016102a2906117ac565b5f81604051602001610a809190611791565b60408051601f1981840301815291815281516020928301205f818152600193849052919091209091015490915060ff16610af05760405162461bcd60e51b81526020600482015260116024820152704d656d626572206e6f742061637469766560781b60448201526064016102a2565b5f8181526001602052604081208054610b08906117e3565b80601f0160208091040260200160405190810160405280929190818152602001828054610b34906117e3565b8015610b7f5780601f10610b5657610100808354040283529160200191610b7f565b820191905f5260205f20905b815481529060010190602001808311610b6257829003601f168201915b50505050509050600160035f83604051602001610b9c9190611791565b6040516020818303038152906040528051906020012081526020019081526020015f206001015f828254610bd091906119d6565b9091555050604080516060810182525f81830181815282526020808301829052858252600190529190912081518190610c099082611868565b50602091909101516001909101805460ff19169115159190911790556040517f816fb948c9b63047dad29d50f39521d74d8931d6bd52593396e25d19dd91144690610c5590859061170b565b60405180910390a161053881610d4b565b60605f8060015f85604051602001610c7e9190611791565b6040516020818303038152906040528051906020012081526020019081526020015f209050805f01816001015f9054906101000a900460ff16818054610cc3906117e3565b80601f0160208091040260200160405190810160405280929190818152602001828054610cef906117e3565b8015610d3a5780601f10610d1157610100808354040283529160200191610d3a565b820191905f5260205f20905b815481529060010190602001808311610d1d57829003601f168201915b505050505091509250925050915091565b5f60035f83604051602001610d609190611791565b6040516020818303038152906040528051906020012081526020019081526020015f2090505f80805f91505b600254821015610ee957835460018501541015610ee95760015f60028481548110610db957610db9611924565b905f5260205f2001604051602001610dd19190611938565b60408051601f198184030181529181528151602092830120835290820192909252015f20600181015490915060ff168015610e3e5750604080515f8152602081018083528151902091610e2691849101611938565b60405160208183030381529060405280519060200120145b15610ed75780610e4e8682611868565b506001846001015f828254610e6391906119ef565b90915550508354600654610e779190611a02565b610e8190846119ef565b92507fefbb467c527a6700b53f5644cf8e28cb12534569d42e33b58e0e517b37b5853660028381548110610eb757610eb7611924565b905f5260205f200186604051610ece929190611a21565b60405180910390a15b81610ee1816119be565b925050610d8c565b5f91505b600254821015611120578354600185015410156111205760015f60028481548110610f1a57610f1a611924565b905f5260205f2001604051602001610f329190611938565b60408051601f198184030181529181528151602092830120835290820192909252015f20600181015490915060ff168015610fa05750604080515f8152602081018083528151902091610f8791849101611938565b6040516020818303038152906040528051906020012014155b1561110e5784604051602001610fb69190611791565b60408051601f1981840301815290829052805160209182012091610fdc91849101611938565b604051602081830303815290604052805190602001201461110e575f60035f835f0160405160200161100e9190611938565b6040516020818303038152906040528051906020012081526020019081526020015f2090505f815f0154600654836001015461104a9190611abb565b6110549190611a02565b90508481111561110b57826110698882611868565b506001866001015f82825461107e91906119ef565b9091555050600182810180545f906110979084906119d6565b909155505085546006546110ab9190611a02565b6110b590866119ef565b94507fefbb467c527a6700b53f5644cf8e28cb12534569d42e33b58e0e517b37b58536600285815481106110eb576110eb611924565b905f5260205f200188604051611102929190611a21565b60405180910390a15b50505b81611118816119be565b925050610eed565b5050505050565b5f611130611343565b90505f826040516020016111449190611791565b6040516020818303038152906040528051906020012090505f8260405160200161116e9190611791565b60408051601f1981840301815282825280516020918201205f8452908301918290529151902090915081036111a35750505050565b604080515f80825260208083018085528351902086835260019091529083902090926111cf9201611938565b60405160208183030381529060405280519060200120146112325760405162461bcd60e51b815260206004820152601b60248201527f4d656d62657220616c72656164792068617320616e20696d616765000000000060448201526064016102a2565b5f8181526003602052604090208054600190910154106112945760405162461bcd60e51b815260206004820152601f60248201527f496d616765206861732072656163686564207265706c696361206c696d69740060448201526064016102a2565b604080518082018252848152600160208083018290525f86815291905291909120815181906112c39082611868565b506020918201516001918201805460ff19169115159190911790555f83815260039092526040822081018054919290916112fe9084906119ef565b90915550506040517fefbb467c527a6700b53f5644cf8e28cb12534569d42e33b58e0e517b37b58536906113359086908690611ad2565b60405180910390a150505050565b60408051602081019091525f808252600654606092915b6004548110156114cc575f6004828154811061137857611378611924565b905f5260205f20016040516020016113909190611938565b60408051601f1981840301815291815281516020928301205f81815260039093529120805460018201549293509091106113cb5750506114ba565b600281015460ff1680156113ed575080546113e69085611abb565b8160010154105b156114b757805460065460018301546114069190611abb565b6114109190611a02565b93506004838154811061142557611425611924565b905f5260205f20018054611438906117e3565b80601f0160208091040260200160405190810160405280929190818152602001828054611464906117e3565b80156114af5780601f10611486576101008083540402835291602001916114af565b820191905f5260205f20905b81548152906001019060200180831161149257829003601f168201915b505050505094505b50505b806114c4816119be565b91505061135a565b509092915050565b8260028101928215611502579160200282015b828111156115025782518255916020019190600101906114e7565b5061150e929150611512565b5090565b5b8082111561150e575f8155600101611513565b634e487b7160e01b5f52604160045260245ffd5b5f82601f830112611549575f80fd5b813567ffffffffffffffff8082111561156457611564611526565b604051601f8301601f19908116603f0116810190828211818310171561158c5761158c611526565b816040528381528660208588010111156115a4575f80fd5b836020870160208301375f602085830101528094505050505092915050565b5f602082840312156115d3575f80fd5b813567ffffffffffffffff8111156115e9575f80fd5b6115f58482850161153a565b949350505050565b602080825282518282018190525f91906040908185019086840185805b8381101561165757825185835b600281101561164457825182529189019190890190600101611627565b505050938501939186019160010161161a565b509298975050505050505050565b5f8060408385031215611676575f80fd5b823567ffffffffffffffff81111561168c575f80fd5b6116988582860161153a565b95602094909401359450505050565b5f602082840312156116b7575f80fd5b5035919050565b5f5b838110156116d85781810151838201526020016116c0565b50505f910152565b5f81518084526116f78160208601602086016116be565b601f01601f19169290920160200192915050565b602081525f61171d60208301846116e0565b9392505050565b5f805f60608486031215611736575f80fd5b833567ffffffffffffffff81111561174c575f80fd5b6117588682870161153a565b9660208601359650604090950135949350505050565b604081525f61178060408301856116e0565b905082151560208301529392505050565b5f82516117a28184602087016116be565b9190910192915050565b60208082526017908201527f43616c6c6572206973206e6f7420746865206f776e6572000000000000000000604082015260600190565b600181811c908216806117f757607f821691505b60208210810361181557634e487b7160e01b5f52602260045260245ffd5b50919050565b601f821115610538575f81815260208120601f850160051c810160208610156118415750805b601f850160051c820191505b818110156118605782815560010161184d565b505050505050565b815167ffffffffffffffff81111561188257611882611526565b6118968161189084546117e3565b8461181b565b602080601f8311600181146118c9575f84156118b25750858301515b5f19600386901b1c1916600185901b178555611860565b5f85815260208120601f198616915b828110156118f7578886015182559484019460019091019084016118d8565b508582101561191457878501515f19600388901b60f8161c191681555b5050505050600190811b01905550565b634e487b7160e01b5f52603260045260245ffd5b5f808354611945816117e3565b6001828116801561195d57600181146119725761199e565b60ff198416875282151583028701945061199e565b875f526020805f205f5b858110156119955781548a82015290840190820161197c565b50505082870194505b50929695505050505050565b634e487b7160e01b5f52601160045260245ffd5b5f600182016119cf576119cf6119aa565b5060010190565b818103818111156119e9576119e96119aa565b92915050565b808201808211156119e9576119e96119aa565b5f82611a1c57634e487b7160e01b5f52601260045260245ffd5b500490565b604081525f808454611a32816117e3565b806040860152606060018084165f8114611a535760018114611a6d57611a9b565b60ff1985168884015283151560051b880183019550611a9b565b895f526020805f205f5b86811015611a925781548b8201870152908401908201611a77565b8a018501975050505b50505050508281036020840152611ab281856116e0565b95945050505050565b80820281158282048414176119e9576119e96119aa565b604081525f611ae460408301856116e0565b8281036020840152611ab281856116e056fea26469706673582212201b6af509420b043f3920cdd8a5810a1c5fe5f560e8b683206ace3770d797670164736f6c63430008140033",
  "immutableReferences": {},
  "source": "// SPDX-License-Identifier: MIT\npragma solidity ^0.8.0;\n\ncontract Canteen {\n    struct Member {\n        string imageName;\n        bool active;\n    }\n\n    struct Image {\n        uint replicas;\n        uint deployed;\n        bool active;\n    }\n\n    address public owner;\n\n    event MemberJoin(string host);\n    event MemberLeave(string host);\n    event MemberImageUpdate(string host, string image);\n\n    mapping(bytes32 => Member) memberDetails;\n    string[] public members;\n\n    mapping(bytes32 => Image) imageDetails;\n    string[] public images;\n    mapping (bytes32 => uint[2][]) exposedPortsForImages;\n\n    uint MULT = 100000;\n\n    modifier restricted() {\n        require(msg.sender == owner, \"Caller is not the owner\");\n        _;\n    }\n\n    constructor() {\n        owner = msg.sender;\n    }\n\n    function addMember(string memory host) public restricted {\n        bytes32 hashedHost = keccak256(abi.encodePacked(host));\n        require(!memberDetails[hashedHost].active, \"Member already active\");\n\n        members.push(host);\n        memberDetails[hashedHost] = Member(\"\", true);\n\n        emit MemberJoin(host);\n        setImageForMember(host);\n    }\n\n    function removeMember(string memory host) public restricted {\n        bytes32 hashedHost = keccak256(abi.encodePacked(host));\n        require(memberDetails[hashedHost].active, \"Member not active\");\n\n        string memory affectedImage = memberDetails[hashedHost].imageName;\n\n        imageDetails[keccak256(abi.encodePacked(affectedImage))].deployed -= 1;\n        memberDetails[hashedHost] = Member(\"\", false);\n\n        emit MemberLeave(host);\n\n        // Need to rebalance\n        // Eg. (A, 4), (B, 4) are two images. We have 4 members, and we remove 2\n        // We now have A A null null -> We would need A B null null\n        rebalanceWithUnfortunateImage(affectedImage);\n    }\n\n    function addImage(string memory name, uint replicas) public restricted {\n        bytes32 hashedName = keccak256(abi.encodePacked(name));\n        require(!imageDetails[hashedName].active, \"Image already active\");\n        require(bytes(name).length > 0, \"Image name cannot be empty\");\n        require(replicas > 0, \"Replicas must be greater than 0\");\n\n        images.push(name);\n        imageDetails[hashedName] = Image(replicas, 0, true);\n\n        // Need to rebalance\n        // Eg. (A, 4) is one image. We have 4 members. Now we add (B, 4)\n        // We now have A A A A -> We would need A B A B\n        rebalanceWithUnfortunateImage(name);\n    }\n\n    function removeImage(string memory name) public restricted {\n        bytes32 hashedName = keccak256(abi.encodePacked(name));\n        require(imageDetails[hashedName].active, \"Image not active\");\n\n        imageDetails[hashedName].active = false;\n\n        // Reassigns all the affected hosts to new images\n        for (uint i = 0; i < members.length; i++) {\n            Member storage member = memberDetails[keccak256(abi.encodePacked(members[i]))];\n            if (member.active && keccak256(abi.encodePacked(member.imageName)) == hashedName) {\n                member.imageName = \"\";\n                setImageForMember(members[i]);\n            }\n        }\n    }\n\n    function addPortForImage(string memory name, uint from, uint to) public restricted {\n        exposedPortsForImages[keccak256(abi.encodePacked(name))].push([from, to]);\n    }\n\n    function getPortsForImage(string memory name) public view restricted returns (uint[2][] memory) {\n        return exposedPortsForImages[keccak256(abi.encodePacked(name))];\n    }\n\n    function getMemberDetails(string memory host) public view returns (string memory, bool) {\n        Member storage details = memberDetails[keccak256(abi.encodePacked(host))];\n        return (details.imageName, details.active);\n    }\n\n    function getImageDetails(string memory name) public view returns (uint, uint, bool) {\n        Image storage details = imageDetails[keccak256(abi.encodePacked(name))];\n        return (details.replicas, details.deployed, details.active);\n    }\n\n    function rebalanceWithUnfortunateImage(string memory newImageName) private {\n        Image storage newImage = imageDetails[keccak256(abi.encodePacked(newImageName))];\n        uint currentRatio = 0;\n        uint i;\n        Member storage member;\n\n        for (i = 0; i < members.length; i++) {\n            if (newImage.deployed >= newImage.replicas)\n                break;\n\n            member = memberDetails[keccak256(abi.encodePacked(members[i]))];\n            // Looking for empty hosts and filling them up\n            if (member.active && keccak256(abi.encodePacked(member.imageName)) == keccak256(abi.encodePacked(\"\"))) {\n                member.imageName = newImageName;\n                newImage.deployed += 1;\n                currentRatio += (MULT / newImage.replicas);\n                emit MemberImageUpdate(members[i], newImageName);\n            }\n        }\n\n        for (i = 0; i < members.length; i++) {\n            if (newImage.deployed >= newImage.replicas)\n                break;\n\n            member = memberDetails[keccak256(abi.encodePacked(members[i]))];\n            // Now we are processing those hosts which already have images on them\n            if (member.active && keccak256(abi.encodePacked(member.imageName)) != keccak256(abi.encodePacked(\"\"))) {\n                // Only check if the machine has some other host running\n                if (keccak256(abi.encodePacked(member.imageName)) != keccak256(abi.encodePacked(newImageName))) {\n                    Image storage image = imageDetails[keccak256(abi.encodePacked(member.imageName))];\n                    uint ratio = (image.deployed * MULT) / image.replicas;\n                    // if (ratio < currentRatio + (MULT / newImage.replicas)) {\n                    if (ratio > currentRatio) {\n                        member.imageName = newImageName;\n                        newImage.deployed += 1;\n                        image.deployed -= 1;\n                        currentRatio += (MULT / newImage.replicas);\n                        emit MemberImageUpdate(members[i], newImageName);\n                    }\n                }\n            }\n        }\n    }\n\n    function setImageForMember(string memory host) private {\n        string memory image = getNextImageToUse();\n        bytes32 hashedHost = keccak256(abi.encodePacked(host));\n        bytes32 hashedImage = keccak256(abi.encodePacked(image));\n        if (hashedImage == keccak256(abi.encodePacked(\"\"))) {\n            return;\n        }\n\n        // Host currently has no image, and image hasn't reached its limit yet.\n        require(keccak256(abi.encodePacked(memberDetails[hashedHost].imageName)) == keccak256(abi.encodePacked(\"\")), \"Member already has an image\");\n        require(imageDetails[hashedImage].deployed < imageDetails[hashedImage].replicas, \"Image has reached replica limit\");\n\n        memberDetails[hashedHost] = Member(image, true);\n        imageDetails[hashedImage].deployed += 1;\n        emit MemberImageUpdate(host, image);\n    }\n\n    // Selects image with lowest usage, scales equal usage of all replicas,\n    // with respect to the ratio of the replicas required.\n    function getNextImageToUse() private view returns (string memory) {\n        string memory bestImage = \"\";\n        uint lowestUsage = MULT;\n\n        for (uint i = 0; i < images.length; i++) {\n            bytes32 hash = keccak256(abi.encodePacked(images[i]));\n            Image storage image = imageDetails[hash];\n\n            if (image.deployed >= image.replicas)\n                continue;\n\n            // deployed / usage < lowestUsage -> this has lower usage\n            if (image.active && image.deployed < lowestUsage * image.replicas) {\n                lowestUsage = (image.deployed * MULT) / image.replicas;\n                bestImage = images[i];\n            }\n        }\n\n        return bestImage;\n    }\n\n    function getMembersCount() public view returns (uint) {\n        return members.length;\n    }\n\n    function getImagesCount() public view returns (uint) {\n        return images.length;\n    }\n}",
  "sourcePath": "/home/harshit/coding/pldg/canteen/canteen-logical/contracts/Canteen.sol",
  "compiler": {
    "name": "solc",
    "version": "0.8.20+commit.a1b79de6.Emscripten.clang"
  },
  "schemaVersion": "3.4.16",
  "updatedAt": "2025-11-14T21:06:15.284Z",
  "networkType": "ethereum",
  "devdoc": {
    "kind": "dev",
    "methods": {},
    "version": 1
  },
  "userdoc": {
    "kind": "user",
    "methods": {},
    "version": 1
  }
}